{
  "transactions": [
    {
      "hash": "0x98ddae880dc14654febe7f8586272a99d03d226e8cdb1f040c39e3e21d85ed4c",
      "transactionType": "CALL",
      "contractName": null,
      "contractAddress": "0x779877a7b0d9e8603169ddbd7836e478b4624789",
      "function": "transferAndCall(address,uint256,bytes)",
      "arguments": [
        "0x9DdfaCa8183c41ad55329BdeeD9F6A8d53168B1B",
        "3000000000000000000",
        "0x790606833fb8612b430da5e17ecdfdee9f5b6641bfe0bbef79cafd272b3597db"
      ],
      "transaction": {
        "from": "0x92da91f49bb7505be5c346361b0adc5a0feebd94",
        "to": "0x779877a7b0d9e8603169ddbd7836e478b4624789",
        "gas": "0x1c1ff",
        "value": "0x0",
        "input": "0x4000aea00000000000000000000000009ddfaca8183c41ad55329bdeed9f6a8d53168b1b00000000000000000000000000000000000000000000000029a2241af62c000000000000000000000000000000000000000000000000000000000000000000600000000000000000000000000000000000000000000000000000000000000020790606833fb8612b430da5e17ecdfdee9f5b6641bfe0bbef79cafd272b3597db",
        "nonce": "0x15",
        "chainId": "0xaa36a7"
      },
      "additionalContracts": [],
      "isFixedGasLimit": false
    }
  ],
  "receipts": [
    {
      "status": "0x1",
      "cumulativeGasUsed": "0x75407d",
      "logs": [
        {
          "address": "0x779877a7b0d9e8603169ddbd7836e478b4624789",
          "topics": [
            "0xddf252ad1be2c89b69c2b068fc378daa952ba7f163c4a11628f55a4df523b3ef",
            "0x00000000000000000000000092da91f49bb7505be5c346361b0adc5a0feebd94",
            "0x0000000000000000000000009ddfaca8183c41ad55329bdeed9f6a8d53168b1b"
          ],
          "data": "0x00000000000000000000000000000000000000000000000029a2241af62c0000",
          "blockHash": "0xa712df281f5fd5e3a92402d511f7879b257c8fd29a8b6b47ef735a9f293f54d6",
          "blockNumber": "0x780b57",
          "blockTimestamp": "0x67cdb734",
          "transactionHash": "0x98ddae880dc14654febe7f8586272a99d03d226e8cdb1f040c39e3e21d85ed4c",
          "transactionIndex": "0x5b",
          "logIndex": "0x4e",
          "removed": false
        },
        {
          "address": "0x779877a7b0d9e8603169ddbd7836e478b4624789",
          "topics": [
            "0xe19260aff97b920c7df27010903aeb9c8d2be5d310a2c67824cf3f15396e4c16",
            "0x00000000000000000000000092da91f49bb7505be5c346361b0adc5a0feebd94",
            "0x0000000000000000000000009ddfaca8183c41ad55329bdeed9f6a8d53168b1b"
          ],
          "data": "0x00000000000000000000000000000000000000000000000029a2241af62c000000000000000000000000000000000000000000000000000000000000000000400000000000000000000000000000000000000000000000000000000000000020790606833fb8612b430da5e17ecdfdee9f5b6641bfe0bbef79cafd272b3597db",
          "blockHash": "0xa712df281f5fd5e3a92402d511f7879b257c8fd29a8b6b47ef735a9f293f54d6",
          "blockNumber": "0x780b57",
          "blockTimestamp": "0x67cdb734",
          "transactionHash": "0x98ddae880dc14654febe7f8586272a99d03d226e8cdb1f040c39e3e21d85ed4c",
          "transactionIndex": "0x5b",
          "logIndex": "0x4f",
          "removed": false
        },
        {
          "address": "0x9ddfaca8183c41ad55329bdeed9f6a8d53168b1b",
          "topics": [
            "0x1ced9348ff549fceab2ac57cd3a9de38edaaab274b725ee82c23e8fc8c4eec7a",
            "0x790606833fb8612b430da5e17ecdfdee9f5b6641bfe0bbef79cafd272b3597db"
          ],
          "data": "0x000000000000000000000000000000000000000000000000000000000000000000000000000000000000000000000000000000000000000029a2241af62c0000",
          "blockHash": "0xa712df281f5fd5e3a92402d511f7879b257c8fd29a8b6b47ef735a9f293f54d6",
          "blockNumber": "0x780b57",
          "blockTimestamp": "0x67cdb734",
          "transactionHash": "0x98ddae880dc14654febe7f8586272a99d03d226e8cdb1f040c39e3e21d85ed4c",
          "transactionIndex": "0x5b",
          "logIndex": "0x50",
          "removed": false
        }
      ],
      "logsBloom": "0x00000004000000000000000000000000000000000020000000000000020000000000000000000000000000000000000000000000000000000000000000000000000000000000000000000008000000000000400000000000000220000020000008000000000000000000000000000000000000000000000000000810000040000000000000000000000000010000800000000020000000000000000000000000000010000000000000000000010000000000000000000000000004000000000000000002000000000000000000000000000000000000000100000000000000000010000000000000800000000008200000000000000000000000000000000000",
      "type": "0x2",
      "transactionHash": "0x98ddae880dc14654febe7f8586272a99d03d226e8cdb1f040c39e3e21d85ed4c",
      "transactionIndex": "0x5b",
      "blockHash": "0xa712df281f5fd5e3a92402d511f7879b257c8fd29a8b6b47ef735a9f293f54d6",
      "blockNumber": "0x780b57",
      "gasUsed": "0x133b1",
      "effectiveGasPrice": "0x39b9899657",
      "from": "0x92da91f49bb7505be5c346361b0adc5a0feebd94",
      "to": "0x779877a7b0d9e8603169ddbd7836e478b4624789",
      "contractAddress": null
    }
  ],
  "libraries": [],
  "pending": [],
  "returns": {},
  "timestamp": 1741535029,
  "chain": 11155111,
  "commit": "c4a3280"
}